:100041000000000000000000FF080808FF0000FF9A
:10005100898989890000FF010101010000FF010177
:100061000101007E8181817E00000000000000000E
:10000300E4F509F50A1200E0E4F508E5082509908E
:10001300004193FD7C00AF0812009E0508E508C36C
:10002300940840E7050AE50AD3940A40DBE4F50A9D
:0E0033000509E509D3942840CFE4F50980CAF9
:1000C000EF4E600F7D027CC7DCFEDDFCEF1F70F0A1
:0300D0001E80EDA2
:0100D300220A
:02007100AD07D9
:10007300E4FB74807E00A803088006CEA2E713CEBB
:1000830013D8F8FFEDF582EF558224FF92B4D2B670
:0A009300C2B60BBB08DCD2B5C2B543
:01009D002240
:0500E000C2B6C2B5220A
:10009E00AA07AF05120071AF027480A8070880028C
:1000AE00C313D8FCF4F5807F017E001200C075806A
:0200BE00FF221F
:030000000200D427
:0C00D400787FE4F6D8FD75810A02000375
:00000001FF
