:0302D400011B000B
:10026400E4FDFC7F011201851202038F1BE51B6074
:10027400F77FE87E03120288E51BFD7C007F0112F4
:04028400018580E48C
:1002AA00EF4E600F7D027CEFDCFEDDFCEF1F70F08D
:0302BA001E80EDB6
:0102BD00221E
:10020300E4F50820B1137F14FE1202AA30B1FD7F7A
:10021300147E001202AA75080120B0147F147E0018
:100223001202AA30B0FD7F147E001202AA750802E2
:1002330020B2147F147E001202AA30B2FD7F147E16
:10024300001202AA75080320B3147F147E00120261
:10025300AA30B3FD7F147E001202AA750804AF080A
:010263002278
:1002BE003F065B4F666D7D077F6F777C395E797188
:060185008F088C098D0AB1
:10018B00780B7C007D007BFF7A0279BE7E007F10AE
:10019B001200D3E50814B4080050549001B475F064
:1001AB0003A4C58325F0C583730201CC0201D002E1
:1001BB0001D40201D80201DC0201E40201EC0201CC
:1001CB00F4D2A4800ED2A48012D2A48016D2A48022
:1001DB001AC2A4D2A3D2A28016C2A4D2A3C2A28056
:1001EB000EC2A4C2A3D2A28006C2A4C2A3C2A2748E
:0701FB000B250AF8E6F58070
:0102020022D9
:0502CE00007FE3DFFEEC
:0102D3002208
:04028800AD07AC060C
:10028C00E4FBFAED25E0FFEC33FEC3EB9FEA9E5056
:0D029C000CB2951202CE0BBB00010A80E6E9
:0102A9002232
:030000000200F902
:0C00F900787FE4F6D8FD75811B02014001
:10000300E709F608DFFA8046E709F208DFFA803EDF
:1000130088828C83E709F0A3DFFA8032E309F608CC
:10002300DFFA8078E309F208DFFA807088828C8334
:10003300E309F0A3DFFA806489828A83E0A3F608E8
:10004300DFFA805889828A83E0A3F208DFFA804CC2
:1000530080D280FA80C680D4806980F28033801099
:1000630080A680EA809A80A880DA80E280CA803302
:1000730089828A83ECFAE493A3C8C582C8CCC5837A
:10008300CCF0A3C8C582C8CCC583CCDFE9DEE7804A
:100093000D89828A83E493A3F608DFF9ECFAA9F0C9
:1000A300EDFB2289828A83ECFAE0A3C8C582C8CC1F
:1000B300C583CCF0A3C8C582C8CCC583CCDFEADE38
:1000C300E880DB89828A83E493A3F208DFF980CC9A
:1000D30088F0EF60010E4E60C388F0ED2402B40493
:1000E3000050B9F582EB2402B4040050AF2323453A
:0600F3008223900053730C
:10010500020264E493A3F8E493A34003F68001F2AA
:1001150008DFF48029E493A3F85407240CC8C333FB
:10012500C4540F4420C8834004F456800146F6DFCA
:10013500E4800B01020408102040809002D4E47E84
:10014500019360BCA3FF543F30E509541FFEE493BF
:10015500A360010ECF54C025E060A840B8E493A386
:10016500FAE493A3F8E493A3C8C582C8CAC583CAB1
:10017500F0A3C8C582C8CAC583CADFE9DEE780BE69
:0102D7000026
:00000001FF
