:10014D000D040D04140414041604160414080004FC
:0F015D0012041204110411040F040F040D08FF03
:10009A00204A0A0000F921F980F9E1FA36FA8CFAC5
:1000AA00D8FB23FB68FBAAFBE9FC23FC5BFC8FFC67
:1000BA00C0FCEFFD1BFD45FD6CFD91FDB4FDD5FDBA
:1000CA00F4FE12FE2EFE47FE60FE78FE8EFEA2FEB3
:0D00DA00B6FEC9FEDAFEEBFEFAFF09FF17C5
:10011C0012016CE50890014D93FFF460208F0905E6
:10012C0008E5089375F07DA4FFAEF0120183050875
:10013C00C28C7F057E00120183D28C80D6C28C804B
:01014C00FEB4
:03000B000200E808
:1000E800C0E0C0D075D000C000C006E50925E024F6
:1000F8000AF8E6FE08E64E6012E50925E0240AF84B
:10010800E6FE08E6F58AEEF58CB295D006D000D06A
:04011800D0D0E03231
:10018300EF4E600F7D027CEFDCFEDDFCEF1F70F0B5
:030193001E80EDDE
:010196002246
:10016C005389F0438901C28DD28C758CFC758A66DB
:07017C00D2A9D2AFC2B922E3
:0300000002000EED
:0C000E00787FE4F6D8FD758153020055A0
:10001A0002011CE493A3F8E493A34003F68001F2DF
:10002A0008DFF48029E493A3F85407240CC8C333E7
:10003A00C4540F4420C8834004F456800146F6DFB6
:10004A00E4800B010204081020408090009AE47EAC
:10005A00019360BCA3FF543F30E509541FFEE493AB
:10006A00A360010ECF54C025E060A840B8E493A372
:10007A00FAE493A3F8E493A3C8C582C8CAC583CA9D
:10008A00F0A3C8C582C8CAC583CADFE9DEE780BE55
:0100E7000018
:00000001FF
