:1008500020200020202D20202D20200020203A20A4
:05086000203A202000F9
:0A086500012200012100021F000023
:10048B00120655E518FB3395E0FA750C027D017FDA
:10049B00011207EEE519FB3395E0FA750C027D04AA
:1004AB007F011207EEE51AFB3395E0FA750C027D1E
:1004BB00077F011207EEE51BFB3395E0FA750C0283
:1004CB007D017F021207EEE51CFB3395E0FA750CFC
:1004DB00027D047F021207EEE51DFB3395E0FA75F2
:0904EB000C027D077F020207EEFE
:10000E00E524B4020C0521E521D394054003E4F563
:10001E0021E524640360030200E974182521F80623
:10002E00D3E518648094E34003E4F518D3E519642E
:10003E0080948C4003751901E51964016023E5195C
:10004E006403601DE51964056017E5196407601106
:10005E00E5196408600BE519640A6005E519B40C2E
:10006E000BD3E51A6480949F404D8048E5196404D3
:10007E006011E5196406600BE51964096005E51960
:10008E00B40B0BD3E51A6480949E402B8026E519A1
:10009E00B40224E51875F0041202DEAFF0EF700B17
:1000AE00D3E51A6480949D400E8009D3E51A6480CE
:1000BE00949C4003751A01D3E51B6480949740030A
:1000CE00E4F51BD3E51C648094BB4003E4F51CD31C
:1000DE00E51D648094BB4003E4F51DE524640460D3
:1000EE00030201E474182521F816C3E51864809400
:1000FE00805003751863C3E51964809481500375AD
:10010E00190CE51964016023E5196403601DE519F6
:10011E0064056017E51964076011E5196408600B42
:10012E00E519640A6005E519B40C17C3E51A648075
:10013E0094815003751A1FD3E51A6480949F407200
:10014E00806DE51964046011E5196406600BE5190C
:10015E0064096005E519B40B17C3E51A6480948130
:10016E005003751A1ED3E51A6480949E4044803F56
:10017E00E5196402703CE51875F0041202DEAFF06A
:10018E00EF7017C3E51A648094815003751A1DD35E
:10019E00E51A6480949D401A8015C3E51A64809414
:1001AE00815003751A1CD3E51A6480949C40037524
:1001BE001A01C3E51B648094805003751B17C3E5B9
:1001CE001C648094805003751C3BC3E51D648094B1
:1001DE00805003751D3BE5217014E523B4010F7BA0
:1001EE00FF7A0879507D017F011207AD8011E51865
:1001FE00FB3395E0FA750C027D017F011207EEE5E7
:10020E0021B40114E523B4010F7BFF7A0879507DE8
:10021E00047F011207AD8011E519FB3395E0FA75E5
:10022E000C027D047F011207EEE521B40214E523D2
:10023E00B4010F7BFF7A0879507D077F011207AD5D
:10024E008011E51AFB3395E0FA750C027D077F01EC
:10025E001207EEE521B40314E523B4010F7BFF7AF8
:10026E000879507D017F021207AD8011E51BFB332B
:10027E0095E0FA750C027D017F021207EEE521B4BE
:10028E000414E523B4010F7BFF7A0879507D047FB7
:10029E00021207AD8011E51CFB3395E0FA750C02D6
:1002AE007D047F021207EEE521B40512E523B401A9
:1002BE000D7BFF7A0879507D077F020207ADE51DA1
:1002CE00FB3395E0FA750C027D077F021207EE22D2
:1005AF001208791200031208237BFF7A0879537D12
:1005BF00017F011207AD7BFF7A08795C7D017F0215
:1005CF001207AD1204201204F48F24E524B401168F
:1005DF00E5227007752201F521800BE522B4010693
:1005EF00E4F522120420E5221460080470D81204E6
:0805FF008B80D312000E80CEA8
:03000B000206D01A
:0906D000C0E0C0D075D000C007E5
:1006D900758CFC758A660520E5207002051FC39498
:1006E900F4E51F94014012751F00752000E5237081
:0906F900047F0180027F008F23C1
:07070200D007D0D0D0E03297
:0608B300C2A58F80D2A750
:0808B9007F027EEFDEFEDFFC92
:0108C1002214
:0A08C200C2A61208B3C2A70208B9CB
:1007D000CFCDCFCECCCE12033F7C007D0A12033F9B
:0407E000ED2430FFD5
:0A07E400D2A61208B3C2A70208B99A
:10083A00AE07BE0104ED148006BE0209ED243F4452
:06084A0080FF1208C2222B
:100879007F381208C27F0C1208C27F061208C27F95
:04088900010208C29E
:0A08CC00AC0312083AAF040207E47F
:0607AD008B088A09890A8D
:1007B30012083AE4FDAB08AA09A90A8D82758300E1
:0C07C300120300FF60061207E40D80E93D
:0107CF002207
:0C077A007F0AEA24FFFDE434FFFC7E004F
:080786008E0D8F0E8C0F8D10FB
:10078E007F017E00E4FBEBC39510E50F6480F874E7
:0E079E008098500AAC0DAD0E12032D0B80E8B2
:0107AC00222A
:0407EE008A0A8B0BDD
:1007F20012083AAA0CEAD39400400D12077AAC0A06
:08080200AD0B1207D01A80EDC6
:01080A0022CB
:1006960012083AC3EA64809480400B7F2B1207E469
:1006A6008A168B17800E7F2D1207E4C3E49BF5177D
:1006B600E49AF516AA15EAD39400400D12077AAC0F
:0906C60016AD171207D01A80EDE1
:0106CF002208
:040709008A278B2888
:10070D0012083AAA29EAD3940040297F1012077CD7
:10071D00AC27AD28CFCDCFCECCCE12033FEF540FAB
:10072D00FEC3940AEE5004243080022437FF1207D2
:04073D00E41A80D169
:010741002295
:040742008A2C8B2D45
:1007460012083AAA2EEAD394004028EA24FFFDE4D0
:1007560034FFFC7F027E00120786AC2CAD2DCFCD78
:10076600CFCECCCE12033FEF54012430FF1207E464
:030776001A80D214
:01077900225D
:09086F000718170B01000000013D
:10080B00EF75F00A1202DEC454F0FEEF75F00A1217
:08081B0002DEAFF0EE2FFF2218
:0308A10012060735
:0F08A400EFC4540F75F00AA4FEEF540F2EFF227D
:05000300C2B5C2B622E7
:03055500FD7C002A
:060558008C088D09AB07C1
:10055E00D2B5E4FD74017E00A805088005C333CE34
:10056E0033CED8F9FFEBF582EF558224FF92B4D249
:10057E00B6C2B60DBD08DDE4FD74017E00A8050807
:10058E008005C333CE33CED8F9FFE5085EFEE5090C
:10059E005F4E24FF92B4D2B6C2B60DBD08DBC2B513
:0105AE00222A
:02060700AD073D
:10060900E4F9430501D2B5FB74017E00A803088013
:1006190005C333CE33CED8F9FFEDF582EF558224E9
:10062900FF92B4C2B6D2B60BBB08DDE4FBD2B6C2A8
:10063900B630B40D7401A803088002C333D8FC4254
:0B064900010BBB08E8C2B5C2B4AF0152
:010654002283
:10042000E4FDFC7F8E120558AF1812080BEF7F8C8D
:10043000120555AF1912080BEF7F88120555AF1A38
:1004400012080BEFFD7C007F86120558AF1B1208C7
:100450000BEFFD7C007F84120558AF1C12080BEFD8
:10046000FD7C007F82120558AF1D12080BEFFD7C4A
:10047000007F80120558AF1E12080BEFFD7C007F35
:0B0480008A1205587D807F8E0205580F
:100655007F8C1208A18F187F881208A18F197F86B9
:100665001206071208A48F1A7F841206071208A41F
:100675008F1B7F821206071208A48F1C7F8012062B
:10068500071208A48F1D7F8A1206071208A48F1E61
:010695002242
:10088D00EF4E600F7D027CC7DCFEDDFCEF1F70F0CC
:03089D001E80EDCD
:0108A0002235
:1004F400E4F50820B1137F14FE12088D30B1FD7F9E
:10050400147E0012088D75080120B0147F147E003B
:1005140012088D30B0FD7F147E0012088D7508021C
:1005240020B2147F147E0012088D30B2FD7F147E39
:100534000012088D75080320B3147F147E0012087E
:100544008D30B3FD7F147E0012088D750804AF084A
:010554002284
:100823005389F0438901C28DD28C758CFC758A661D
:07083300D2A9D2AFC2B92225
:0300000002039464
:0C039400787FE4F6D8FD75812E0203DBB3
:1002DE00C2D530F707B2D563F0FF05F030E70CB2A8
:1002EE00D5F4048463F0FF05F080018430D502F468
:0202FE000422D8
:10030000BB010CE58229F582E5833AF583E02250B2
:1003100006E92582F8E622BBFE06E92582F8E222FC
:0D032000E58229F582E5833AF583E4932216
:10032D00EF8DF0A4A8F0CF8CF0A428CE8DF0A42EE4
:02033D00FE229E
:10033F00BC000BBE0029EF8DF084FFADF022E4CCA2
:10034F00F875F008EF2FFFEE33FEEC33FCEE9DEC6B
:10035F00984005FCEE9DFE0FD5F0E9E4CEFD22EDB1
:10036F00F8F5F0EE8420D21CFEADF075F008EF2FFB
:10037F00FFED33FD4007985006D5F0F222C398FDEC
:05038F000FD5F0EA2289
:1003A0000205AFE493A3F8E493A34003F68001F2BF
:1003B00008DFF48029E493A3F85407240CC8C3335E
:1003C000C4540F4420C8834004F456800146F6DF2D
:1003D000E4800B0102040810204080900865E47E50
:1003E000019360BCA3FF543F30E509541FFEE49322
:1003F000A360010ECF54C025E060A840B8E493A3E9
:10040000FAE493A3F8E493A3C8C582C8CAC583CA13
:10041000F0A3C8C582C8CAC583CADFE9DEE780BECB
:01087800007F
:00000001FF
