:1003E1005772697465204F4B002020202020202067
:1003F100200052656164204F4B00202020202020E6
:020401002000D9
:0704DD0001240002220000CF
:10000300120487750C05AB23AA227D017F0212041B
:100013003F1202028F24E524B401150523E5237062
:10002300020522750C05FBAA227D017F0212043F03
:10003300E524B40216E523152370021522750C0579
:10004300AB23AA227D017F0212043FE524640370DF
:1000530040FCAD23FF12039A7F057E00120472E574
:1000630022FD7C007F0112039A7F057E0012047239
:100073007BFF7A0379E17D017F011203BE7FE87E76
:10008300031204727BFF7A0379EA7D017F01120375
:10009300BEE52464046003020014FF1203417522C9
:1000A300008F237F01120341EFFEEE4222750C0500
:1000B300AB23AA227D017F0212043F7BFF7A0379DF
:1000C300F37D017F011203BE7FE87E031204727B7E
:0F00D300FF7A0379FB7D017F011203BE02001447
:10047200EF4E6010007D027CC7DCFEDDFCEF1F70DA
:04048200EF1E80ECFD
:010486002253
:10020200E4F50820B1137F14FE12047230B1FD7FB1
:10021200147E0012047275080120B0147F147E004F
:1002220012047230B0FD7F147E001204727508024F
:1002320020B2147F147E0012047230B2FD7F147E4D
:100242000012047275080320B3147F147E00120496
:100252007230B3FD7F147E00120472750804AF0879
:010262002279
:06049B00C2A58F80D2A76C
:0804A1007F027EEFDEFEDFFCAE
:0104A9002230
:0A04B600C2A612049BC2A70204A113
:10040300CFCDCFCECCCE1201217C007D0A120121AB
:04041300ED2430FFA5
:0A041700D2A612049BC2A70204A1A2
:10045C00AE07BE0104ED148006BE0209ED243F4434
:06046C0080FF1204B6221D
:100487007F381204B67F0C1204B67F061204B67FBB
:04049700010204B6A4
:0A04C000AC0312045CAF0402041741
:0603BE008B088A09890A80
:1003C40012045CE4FDAB08AA09A90A8D82758300B6
:0C03D4001200E2FF60061204170D80E921
:0103E00022FA
:0C030E007F0AEA24FFFDE434FFFC7E00BF
:08031A008E0D8F0E8C0F8D106B
:100322007F017E00E4FBEBC39510E50F6480F87457
:0E0332008098500AAC0DAD0E12010F0B80E842
:01034000229A
:04043F008A0A8B0B8F
:1004430012045CAA0CEAD39400400D12030EAC0A0A
:08045300AD0B1204031A80ED49
:01045B00227E
:1002630012045CC3EA64809480400B7F2B12041752
:100273008A168B17800E7F2D120417C3E49BF51784
:10028300E49AF516AA15EAD39400400D12030EACB6
:0902930016AD171204031A80EDE8
:01029C00223F
:04029D008A1A8B1B13
:1002A10012045CAA1CEAD3940040297F10120310A7
:1002B100AC1AAD1BCFCDCFCECCCE120121EF540F56
:1002C100FEC3940AEE5004243080022437FF120446
:0402D100171A80D1A7
:0102D5002206
:0402D6008A1F8B20D0
:1002DA0012045CAA21EAD394004028EA24FFFDE430
:1002EA0034FFFC7F027E0012031AAC1FAD20CFCD73
:1002FA00CFCECCCE120121EF54012430FF120417C5
:03030A001A80D284
:01030D0022CD
:10039A008F088C098D0A1204D47FA01203711204EB
:1003AA00AAAF081203711204AAAF0A120371120447
:0403BA00AA0204E5AA
:020341008F0823
:100343001204D47FA01203711204AAAF081203711E
:100353001204AA1204D47FA11203711204AA120474
:0D036300218F097F011204CA1204E5AF09C1
:01037000226A
:0904D400D2A0D2A1C2A0C2A12253
:0704E500C2A0D2A1D2A022A7
:02037100AD07D6
:10037300E4FB74807E00A803088006CEA2E713CEB8
:1003830013D8F8FFEDF582EF558224FF92A0D2A196
:06039300C2A10BBB08DC57
:010399002241
:10042100E4FFD2A0FED2A130A00D7480A8060880FE
:0D04310002C313D8FC4207C2A10EBE08E8AA
:01043E00229B
:0A04CA00EF24FF92A0D2A1C2A122EC
:0B04AA00D2A0D2A1A2A0E433FFC2A1A7
:0104B5002224
:0300000002017684
:0C017600787FE4F6D8FD7581240201BDFD
:1000E200BB010CE58229F582E5833AF583E02250D3
:1000F20006E92582F8E622BBFE06E92582F8E2221D
:0D010200E58229F582E5833AF583E4932236
:10010F00EF8DF0A4A8F0CF8CF0A428CE8DF0A42E04
:02011F00FE22BE
:10012100BC000BBE0029EF8DF084FFADF022E4CCC2
:10013100F875F008EF2FFFEE33FEEC33FCEE9DEC8B
:10014100984005FCEE9DFE0FD5F0E9E4CEFD22EDD1
:10015100F8F5F0EE8420D21CFEADF075F008EF2F1B
:10016100FFED33FD4007985006D5F0F222C398FD0C
:050171000FD5F0EA22A9
:10018200020003E493A3F8E493A34003F68001F290
:1001920008DFF48029E493A3F85407240CC8C3337E
:1001A200C4540F4420C8834004F456800146F6DF4D
:1001B200E4800B01020408102040809004DDE47EFC
:1001C200019360BCA3FF543F30E509541FFEE49342
:1001D200A360010ECF54C025E060A840B8E493A309
:1001E200FAE493A3F8E493A3C8C582C8CAC583CA34
:1001F200F0A3C8C582C8CAC583CADFE9DEE780BEEC
:0104E4000017
:00000001FF
