:0A008D001200037F2912009780FE85
:03002300020026B2
:10002600C0E0C0F0C083C082C0D075D000C000C0A0
:1000360001C002C003C004C005C006C00730980C4A
:10004600E599F4F5A0AF99120097C298D007D006AB
:10005600D005D004D003D002D001D000D0D0D082B9
:07006600D083D0F0D0E0329E
:10006D00EF4E600F7D027CC7DCFEDDFCEF1F70F0F4
:03007D001E80EDF5
:01008000225D
:1000030075985043878053890F438920758BF47506
:0B0013008DF4C2ABD28ED2AFD2AC2273
:080097008F993099FDC29922F6
:030000000200817A
:0C008100787FE4F6D8FD75810702008D41
:00000001FF
