:10017500E4F508F5091202100509E50970020508FC
:100185007FE87E03120224750E03AB09AA087D01E0
:070195007F011201DD80E192
:06023800C2A58F80D2A7D1
:08023E007F027EEFDEFEDFFC13
:010246002295
:0A025300C2A6120238C2A702023E42
:1001BF00CFCDCFCECCCE1200427C007D0A120042B2
:0401CF00ED2430FFEC
:0A01D300D2A6120238C2A702023EB3
:1001FA00AE07BE0104ED148006BE0209ED243F4499
:06020A0080FF12025322E6
:100210007F381202537F0C1202537F061202537F63
:040220000102025382
:0A025D00AC031201FAAF040201D352
:06019C008B248A25892650
:1001A2001201FAE4FDAB24AA25A9268D82758300EB
:0C01B200120003FF60061201D30D80E96B
:0101BE00221E
:0C0142007F0AEA24FFFDE434FFFC7E008D
:08014E008E0F8F108C118D1231
:100156007F017E00E4FBEBC39512E5116480F87421
:0E0166008098500AAC0FAD101200300B80E8EC
:010174002268
:0401DD008A0C8B0DF0
:1001E1001201FAAA0EEAD39400400D120142AC0C9E
:0801F100AD0D1201BF1A80EDF3
:0101F90022E3
:100097001201FAC3EA64809480400B7F2B1201D3CC
:1000A7008A188B19800E7F2D1201D3C3E49BF51993
:1000B700E49AF518AA17EAD39400400D120142AC4E
:0900C70018AD191201BF1A80EDF9
:0100D000220D
:0400D1008A1C8B1DDD
:1000D5001201FAAA1EEAD3940040297F10120144A6
:1000E500AC1CAD1DCFCDCFCECCCE120042EF540F00
:1000F500FEC3940AEE5004243080022437FF120117
:04010500D31A80D1B8
:0101090022D3
:04010A008A218B2299
:10010E001201FAAA23EAD394004028EA24FFFDE460
:10011E0034FFFC7F027E0012014EAC21AD22CFCD0A
:10012E00CFCECCCE120042EF54012430FF1201D3B9
:03013E001A80D252
:01014100229B
:10022400EF4E600F7D027CEFDCFEDDFCEF1F70F013
:030234001E80ED3C
:0102370022A4
:03000000020247B2
:0C024700787FE4F6D8FD75812602017571
:10000300BB010CE58229F582E5833AF583E02250B2
:1000130006E92582F8E622BBFE06E92582F8E222FC
:0D002300E58229F582E5833AF583E4932216
:10003000EF8DF0A4A8F0CF8CF0A428CE8DF0A42EE4
:02004000FE229E
:10004200BC000BBE0029EF8DF084FFADF022E4CCA2
:10005200F875F008EF2FFFEE33FEEC33FCEE9DEC6B
:10006200984005FCEE9DFE0FD5F0E9E4CEFD22EDB1
:10007200F8F5F0EE8420D21CFEADF075F008EF2FFB
:10008200FFED33FD4007985006D5F0F222C398FDEC
:050092000FD5F0EA2289
:00000001FF
