:06046900C2A58F80D2A79E
:08046F007F027EEFDEFEDFFCE0
:010477002262
:0A048400C2A6120469C2A702046FA9
:1003DE00CFCDCFCECCCE1202887C007D0A12028801
:0403EE00ED2430FFCB
:0A03F200D2A6120469C2A702046F2C
:10041900AE07BE0104ED148006BE0209ED243F4477
:0604290080FF1204842292
:10042F007F381204847F0C1204847F061204847FA9
:04043F00010204842E
:0A048E00AC03120419AF040203F2DC
:0603BB008B088A09890A83
:1003C100120419E4FDAB08AA09A90A8D82758300FC
:0C03D100120249FF60061203F20D80E9E1
:0103DD0022FD
:0C0388007F0AEA24FFFDE434FFFC7E0045
:080394008E0D8F0E8C0F8D10F1
:10039C007F017E00E4FBEBC39510E50F6480F874DD
:0E03AC008098500AAC0DAD0E1202760B80E860
:0103BA002220
:0403FC008A0A8B0BD3
:10040000120419AA0CEAD39400400D120388AC0A16
:08041000AD0B1203DE1A80EDB2
:0104180022C1
:1002DD00120419C3EA64809480400B7F2B1203F241
:1002ED008A168B17800E7F2D1203F2C3E49BF51730
:1002FD00E49AF516AA15EAD39400400D120388ACC2
:09030D0016AD171203DE1A80ED93
:0103160022C4
:040317008A1A8B1B98
:10031B00120419AA1CEAD3940040297F1012038AF5
:10032B00AC1AAD1BCFCDCFCECCCE120288EF540F73
:10033B00FEC3940AEE5004243080022437FF1203CC
:04034B00F21A80D151
:01034F00228B
:040350008A1F8B2055
:10035400120419AA21EAD394004028EA24FFFDE4F8
:1003640034FFFC7F027E00120394AC1FAD20CFCD7E
:10037400CFCECCCE120288EF54012430FF1203F208
:030384001A80D20A
:010387002253
:1004570050617373776F72643A004F4B20004552B7
:02046700520041
:10018C0012042F7BFF7A0479577D017F011203BB88
:10019C001200038F26E52660F7D3940A5041C3E57D
:1001AC00239404E52294005028AE24AF257C007DD6
:1001BC000A1202768E248F25E52675F00A84E5F066
:1001CC002525F525E43524F5240523E523700205C2
:1001DC0022750C04AB25AA247D017F021203FCE5D9
:1001EC0026640B7036E525B4290DE524B409087B8B
:1001FC00FF7A04796180067BFF7A0479657D0E7F36
:10020C00011203BBE4F524F525F522F523750C0446
:10021C00AB25AA247D017F021203FCE526640C6049
:10022C000302019CF524F525F522F523750C04AB8E
:0D023C0025AA247D017F021203FC02019C13
:10044300EF4E600F7D027CEFDCFEDDFCEF1F70F0F2
:030453001E80ED1B
:010456002283
:10000300E4F5087590FFC2932097137F14FE120442
:10001300433097FD7F147E00120443750801209638
:10002300147F147E001204433096FD7F147E001269
:1000330004437508052095147F147E001204433091
:1000430095FD7F147E001204437508092094147FE4
:10005300147E001204433094FD7F147E0012044387
:1000630075080D7590FFC2922097147F147E0012BD
:1000730004433097FD7F147E001204437508022069
:1000830096147F147E001204433096FD7F147E0085
:100093001204437508062095147F147E001204434E
:1000A3003095FD7F147E0012044375080A209414D2
:1000B3007F147E001204433094FD7F147E001204EB
:1000C3004375080E7590FFC2912097147F147E002C
:1000D3001204433097FD7F147E0012044375080316
:1000E3002096147F147E001204433096FD7F147E05
:1000F300001204437508072095147F147E00120430
:10010300433095FD7F147E0012044375080B209441
:10011300147F147E001204433094FD7F147E00127A
:10012300044375080F7590FFC2902097147F147EC7
:10013300001204433097FD7F147E001204437508B8
:10014300042096147F147E001204433096FD7F141E
:100153007E001204437508082095147F147E001254
:1001630004433095FD7F147E0012044375080C2070
:1001730094147F147E001204433094FD7F147E0098
:08018300120443750810AF08D7
:01018B002251
:030000000204787F
:0C047800787FE4F6D8FD75812602018C27
:10024900BB010CE58229F582E5833AF583E022506A
:1002590006E92582F8E622BBFE06E92582F8E222B4
:0D026900E58229F582E5833AF583E49322CE
:10027600EF8DF0A4A8F0CF8CF0A428CE8DF0A42E9C
:02028600FE2256
:10028800BC000BBE0029EF8DF084FFADF022E4CC5A
:10029800F875F008EF2FFFEE33FEEC33FCEE9DEC23
:1002A800984005FCEE9DFE0FD5F0E9E4CEFD22ED69
:1002B800F8F5F0EE8420D21CFEADF075F008EF2FB3
:1002C800FFED33FD4007985006D5F0F222C398FDA4
:0502D8000FD5F0EA2241
:00000001FF
