:07000300434C4F434B3A0050
:10037800021300000217000002150000021100001D
:100196001203641203237BFF7A0079037D017F013A
:1001A6001202C57B3A7D037F021203A27B3A7D06CB
:1001B6007F021203A2750C02AB14AA137D077F02FD
:1001C600120306750C02AB18AA177D047F021203F0
:1001D60006750C02AB16AA157D017F021203068076
:0101E600C256
:03000B0002012EC1
:04012E00C0E0C0D09D
:10013200758CFC758A180512E51270020511C394BC
:10014200E8E511940340487511007512000514E5A5
:100152001470020513943CE51394004032751300A9
:100162007514000518E51870020517943CE51794FC
:1001720000401C7517007518000516E5167002057B
:0F018200159418E51594004006751500751600C4
:05019100D0D0D0E032E7
:10035000EF4E600F7D027CEFDCFEDDFCEF1F70F0E6
:030360001E80ED0F
:010363002277
:06038900C2A58F80D2A77F
:08038F007F027EEFDEFEDFFCC1
:010397002243
:0A039800C2A6120389C2A702038F58
:1002E800CFCDCFCECCCE12004D7C007D0A12004D72
:0402F800ED2430FFC2
:0A02FC00D2A6120389C2A702038FE5
:10033A00AE07BE0104ED148006BE0209ED243F4457
:06034A0080FF120398225F
:100364007F381203987F0C1203987F061203987F3C
:0403740001020398E7
:0A03A200AC0312033AAF040202FCA0
:0602C5008B088A09890A7A
:1002CB0012033AE4FDAB08AA09A90A8D82758300D3
:0C02DB0012000EFF60061202FC0D80E90C
:0102E70022F4
:0C0292007F0AEA24FFFDE434FFFC7E003C
:08029E008E0D8F0E8C0F8D10E8
:1002A6007F017E00E4FBEBC39510E50F6480F874D4
:0E02B6008098500AAC0DAD0E12003B0B80E894
:0102C4002217
:040306008A0A8B0BC9
:10030A0012033AAA0CEAD39400400D120292AC0AE4
:08031A00AD0B1202E81A80EDA0
:0103220022B8
:1001E70012033AC3EA64809480400B7F2B1202FC0F
:1001F7008A1E8B1F800E7F2D1202FCC3E49BF51F06
:10020700E49AF51EAA1DEAD39400400D120292AC9F
:090217001EAD1F1202E81A80ED71
:0102200022BB
:040221008A228B237F
:1002250012033AAA24EAD3940040297F10120294BB
:10023500AC22AD23CFCDCFCECCCE12004DEF540F97
:10024500FEC3940AEE5004243080022437FF1202C4
:04025500FC1A80D13E
:010259002282
:04025A008A278B283C
:10025E0012033AAA29EAD394004028EA24FFFDE4C7
:10026E0034FFFC7F027E0012029EAC27AD28CFCD5C
:10027E00CFCECCCE12004DEF54012430FF1202FC33
:03028E001A80D201
:01029100224A
:100323005389F0438901C28DD28C758CFC758A1870
:07033300D2A9D2AFC2B9222A
:030000000200A259
:0C00A200787FE4F6D8FD7581290200E9A2
:10000E00BB010CE58229F582E5833AF583E02250A7
:10001E0006E92582F8E622BBFE06E92582F8E222F1
:0D002E00E58229F582E5833AF583E493220B
:10003B00EF8DF0A4A8F0CF8CF0A428CE8DF0A42ED9
:02004B00FE2293
:10004D00BC000BBE0029EF8DF084FFADF022E4CC97
:10005D00F875F008EF2FFFEE33FEEC33FCEE9DEC60
:10006D00984005FCEE9DFE0FD5F0E9E4CEFD22EDA6
:10007D00F8F5F0EE8420D21CFEADF075F008EF2FF0
:10008D00FFED33FD4007985006D5F0F222C398FDE1
:05009D000FD5F0EA227E
:1000AE00020196E493A3F8E493A34003F68001F2D1
:1000BE0008DFF48029E493A3F85407240CC8C33353
:1000CE00C4540F4420C8834004F456800146F6DF22
:1000DE00E4800B0102040810204080900378E47E37
:1000EE00019360BCA3FF543F30E509541FFEE49317
:1000FE00A360010ECF54C025E060A840B8E493A3DE
:10010E00FAE493A3F8E493A3C8C582C8CAC583CA08
:10011E00F0A3C8C582C8CAC583CADFE9DEE780BEC0
:010388000074
:00000001FF
