:0C047F00021A0000021C0000021E000017
:100104001204B512052B8F24E524B4010CE52370E9
:10011400047F0180027F008F23E524B40207E4F505
:1001240021F520F522E52464037033E521FD7C00EC
:10013400E4FF12043D7F057E001204E2E520FD7C0D
:10014400007F0112043D7F057E001204E2E522FDDA
:100154007C007F0212043D7F057E001204E2E52448
:10016400B40415E4FF1203BD8F217F011203BD8F78
:10017400207F021203BD8F22E52175F00A84FD7CE5
:10018400007F01120519E52175F00A84E5F0FD7C74
:10019400007F021205197D0B7C007F03120519E50F
:1001A4002075F00A84FD7C007F04120519E5207592
:1001B400F00A84E5F0FD7C007F051205197D0B7CB7
:1001C400007F06120519E52275F00A84FD7C007F84
:1001D40007120519E52275F00A84E5F0FD7C007F1D
:0701E40008120519020107D2
:10041600E52360220522E522C394644019E4F5220F
:100426000520E520943C400EE4F5200521E52194C5
:070436003C4003E4F5212224
:03000B000201EB04
:1001EB00C0E0C0F0C083C082C0D075D000C000C0DA
:0D01FB0001C002C003C004C005C006C0075B
:10020800758CFC758A66051BE51B7002051AC3947C
:100218000FE51A94004009751A00751B0012038433
:10022800051DE51D7002051CC39402E51C940040E1
:1002380009751C00751D0012049A051FE51F700240
:10024800051EC3940AE51E94004009751E00751F1B
:040258000012041676
:10025C00D007D006D005D004D003D002D001D000F6
:0B026C00D0D0D082D083D0F0D0E032A0
:05052B00E4AF31F531E1
:0105300022A8
:1004CC00E4FF20B1010F20B0027F0220B2027F03B3
:0504DC0020B3027F04C3
:0104E10022F8
:10038400852F301204CC8F2FE530B40107E52F7090
:1003940003753101E530B40207E52F7003753102AE
:1003A400E530B40307E52F7003753103E530B40479
:0803B40007E52F700375310409
:0103BC00221E
:0C04F7003F065B4F666D7D077F6F004085
:0E048B000926000A0A0A0A0A0A0A0A012501BD
:09051900AE0574262FF8A6062297
:060303008F088C098D0A31
:10030900780B7C007D007BFF7A0479F77E007F0CF7
:100319001200DEE4F580E50814B408005054900397
:100329003575F003A4C58325F0C5837302034D0217
:10033900035102035502035902035D0203650203D7
:100349006D020375D2A4800ED2A48012D2A48016A5
:10035900D2A4801AC2A4D2A3D2A28016C2A4D2A3C4
:10036900C2A2800EC2A4C2A3D2A28006C2A4C2A302
:0A037900C2A2740B250AF8E6F58015
:010383002257
:10049A0074262525F8E6FD7C00AF25120303052501
:0A04AA00E525C39409400375250100
:0104B4002225
:1004B5005389F0438901C28DD28C758CFC758A668F
:0704C500D2A9D2AFC2B92297
:1004E200EF4E6010007D027CC7DCFEDDFCEF1F706A
:0404F200EF1E80EC8D
:0104F60022E3
:10043D008F178C188D191205227FA01203ED12054E
:10044D0003AF171203ED120503AF191203ED1205D9
:04045D000302000393
:0203BD008F1798
:1003BF001205227FA01203ED120503AF171203EDF2
:1003CF001205031205227FA11203ED120503120479
:0D03DF00618F187F0112050F120003AF1887
:0103EC0022EE
:09052200D2A0D2A1C2A0C2A12204
:07000300C2A0D2A1D2A0228D
:0203ED00AD075A
:1003EF00E4FB74807E00A803088006CEA2E713CE3C
:1003FF0013D8F8FFEDF582EF558224FF92A0D2A11A
:06040F00C2A10BBB08DCDA
:0104150022C4
:10046100E4FFD2A0FED2A130A00D7480A8060880BE
:0D04710002C313D8FC4207C2A10EBE08E86A
:01047E00225B
:0A050F00EF24FF92A0D2A1C2A122A6
:0B050300D2A0D2A1A2A0E433FFC2A14D
:01050E0022CA
:0300000002027782
:0C027700787FE4F6D8FD7581310202BEEC
:10000E00E709F608DFFA8046E709F208DFFA803ED4
:10001E0088828C83E709F0A3DFFA8032E309F608C1
:10002E00DFFA8078E309F208DFFA807088828C8329
:10003E00E309F0A3DFFA806489828A83E0A3F608DD
:10004E00DFFA805889828A83E0A3F208DFFA804CB7
:10005E0080D280FA80C680D4806980F2803380108E
:10006E0080A680EA809A80A880DA80E280CA8033F7
:10007E0089828A83ECFAE493A3C8C582C8CCC5836F
:10008E00CCF0A3C8C582C8CCC583CCDFE9DEE7803F
:10009E000D89828A83E493A3F608DFF9ECFAA9F0BE
:1000AE00EDFB2289828A83ECFAE0A3C8C582C8CC14
:1000BE00C583CCF0A3C8C582C8CCC583CCDFEADE2D
:1000CE00E880DB89828A83E493A3F208DFF980CC8F
:1000DE0088F0EF60010E4E60C388F0ED2402B40488
:1000EE000050B9F582EB2402B4040050AF2323452F
:0600FE00822390005E73F6
:10028300020104E493A3F8E493A34003F68001F28C
:1002930008DFF48029E493A3F85407240CC8C3337C
:1002A300C4540F4420C8834004F456800146F6DF4B
:1002B300E4800B010204081020408090047FE47E58
:1002C300019360BCA3FF543F30E509541FFEE49340
:1002D300A360010ECF54C025E060A840B8E493A307
:1002E300FAE493A3F8E493A3C8C582C8CAC583CA32
:1002F300F0A3C8C582C8CAC583CADFE9DEE780BEEA
:010499000062
:00000001FF
